{
  "contractName": "TodoList",
  "abi": [
    {
      "constant": true,
      "inputs": [],
      "name": "taskCount",
      "outputs": [
        {
          "internalType": "uint256",
          "name": "",
          "type": "uint256"
        }
      ],
      "payable": false,
      "stateMutability": "view",
      "type": "function"
    }
  ],
  "bytecode": "0x608060405260008055348015601357600080fd5b506084806100226000396000f3fe6080604052348015600f57600080fd5b506004361060285760003560e01c8063b6cb58a514602d575b600080fd5b60336049565b6040518082815260200191505060405180910390f35b6000548156fea265627a7a723158200e22135237d5f5f5ace932c87161b408a42667590b1676893cf9414ea93d017664736f6c63430005100032",
  "source": "pragma solidity ^0.5.0;\n// my truffle uses solidity 0.5.0, but best to dev on latest versions of solidity\n\ncontract TodoList {\n    uint public taskCount = 0; // state variable; scoped for entire smart contract\n    // public keyword; solidity auto creates a taskCount() fxn to read value outside of contract\n}",
  "sourcePath": "/Users/kristiehuang/Documents/Hacks/ethtodolist-solidity/contracts/TodoList.sol",
  "compiler": {
    "name": "solc",
    "version": "0.5.16+commit.9c3226ce.Emscripten.clang"
  },
  "schemaVersion": "3.4.3",
  "updatedAt": "2021-09-25T06:12:41.974Z",
  "networkType": "ethereum",
  "devdoc": {
    "methods": {}
  },
  "userdoc": {
    "methods": {}
  }
}